{
  "contractName": "DotalkSaleSmartContract",
  "abi": [
    {
      "constant": true,
      "inputs": [],
      "name": "list",
      "outputs": [
        {
          "name": "",
          "type": "address"
        }
      ],
      "payable": false,
      "stateMutability": "view",
      "type": "function"
    },
    {
      "constant": true,
      "inputs": [],
      "name": "saleStartTime",
      "outputs": [
        {
          "name": "",
          "type": "uint256"
        }
      ],
      "payable": false,
      "stateMutability": "view",
      "type": "function"
    },
    {
      "constant": true,
      "inputs": [
        {
          "name": "contributor",
          "type": "address"
        },
        {
          "name": "amountInWei",
          "type": "uint256"
        }
      ],
      "name": "eligible",
      "outputs": [
        {
          "name": "",
          "type": "uint256"
        }
      ],
      "payable": false,
      "stateMutability": "view",
      "type": "function"
    },
    {
      "constant": true,
      "inputs": [],
      "name": "minCap",
      "outputs": [
        {
          "name": "",
          "type": "uint256"
        }
      ],
      "payable": false,
      "stateMutability": "view",
      "type": "function"
    },
    {
      "constant": true,
      "inputs": [
        {
          "name": "contributor",
          "type": "address"
        }
      ],
      "name": "contributorCap",
      "outputs": [
        {
          "name": "",
          "type": "uint256"
        }
      ],
      "payable": false,
      "stateMutability": "view",
      "type": "function"
    },
    {
      "constant": true,
      "inputs": [],
      "name": "multiSigWallet",
      "outputs": [
        {
          "name": "",
          "type": "address"
        }
      ],
      "payable": false,
      "stateMutability": "view",
      "type": "function"
    },
    {
      "constant": false,
      "inputs": [],
      "name": "finalizeSale",
      "outputs": [],
      "payable": false,
      "stateMutability": "nonpayable",
      "type": "function"
    },
    {
      "constant": true,
      "inputs": [],
      "name": "saleStarted",
      "outputs": [
        {
          "name": "",
          "type": "bool"
        }
      ],
      "payable": false,
      "stateMutability": "view",
      "type": "function"
    },
    {
      "constant": true,
      "inputs": [],
      "name": "haltSale",
      "outputs": [
        {
          "name": "",
          "type": "bool"
        }
      ],
      "payable": false,
      "stateMutability": "view",
      "type": "function"
    },
    {
      "constant": false,
      "inputs": [
        {
          "name": "halt",
          "type": "bool"
        }
      ],
      "name": "setHaltSale",
      "outputs": [],
      "payable": false,
      "stateMutability": "nonpayable",
      "type": "function"
    },
    {
      "constant": false,
      "inputs": [
        {
          "name": "anyToken",
          "type": "address"
        }
      ],
      "name": "emergencyDrain",
      "outputs": [
        {
          "name": "",
          "type": "bool"
        }
      ],
      "payable": false,
      "stateMutability": "nonpayable",
      "type": "function"
    },
    {
      "constant": true,
      "inputs": [],
      "name": "xtime",
      "outputs": [
        {
          "name": "",
          "type": "uint256"
        }
      ],
      "payable": false,
      "stateMutability": "view",
      "type": "function"
    },
    {
      "constant": true,
      "inputs": [],
      "name": "firstRoundTime",
      "outputs": [
        {
          "name": "",
          "type": "uint256"
        }
      ],
      "payable": false,
      "stateMutability": "view",
      "type": "function"
    },
    {
      "constant": true,
      "inputs": [],
      "name": "saleEnded",
      "outputs": [
        {
          "name": "",
          "type": "bool"
        }
      ],
      "payable": false,
      "stateMutability": "view",
      "type": "function"
    },
    {
      "constant": false,
      "inputs": [
        {
          "name": "proxy",
          "type": "bytes32"
        },
        {
          "name": "recipient",
          "type": "address"
        }
      ],
      "name": "proxyBuy",
      "outputs": [
        {
          "name": "",
          "type": "uint256"
        }
      ],
      "payable": true,
      "stateMutability": "payable",
      "type": "function"
    },
    {
      "constant": true,
      "inputs": [
        {
          "name": "",
          "type": "address"
        }
      ],
      "name": "participated",
      "outputs": [
        {
          "name": "",
          "type": "uint256"
        }
      ],
      "payable": false,
      "stateMutability": "view",
      "type": "function"
    },
    {
      "constant": true,
      "inputs": [],
      "name": "raisedWei",
      "outputs": [
        {
          "name": "",
          "type": "uint256"
        }
      ],
      "payable": false,
      "stateMutability": "view",
      "type": "function"
    },
    {
      "constant": true,
      "inputs": [
        {
          "name": "_contributor",
          "type": "address"
        }
      ],
      "name": "contributedCap",
      "outputs": [
        {
          "name": "",
          "type": "uint256"
        }
      ],
      "payable": false,
      "stateMutability": "view",
      "type": "function"
    },
    {
      "constant": true,
      "inputs": [
        {
          "name": "",
          "type": "bytes32"
        }
      ],
      "name": "proxyPurchases",
      "outputs": [
        {
          "name": "",
          "type": "uint256"
        }
      ],
      "payable": false,
      "stateMutability": "view",
      "type": "function"
    },
    {
      "constant": true,
      "inputs": [],
      "name": "saleEndTime",
      "outputs": [
        {
          "name": "",
          "type": "uint256"
        }
      ],
      "payable": false,
      "stateMutability": "view",
      "type": "function"
    },
    {
      "constant": false,
      "inputs": [
        {
          "name": "recipient",
          "type": "address"
        }
      ],
      "name": "buy",
      "outputs": [
        {
          "name": "",
          "type": "uint256"
        }
      ],
      "payable": true,
      "stateMutability": "payable",
      "type": "function"
    },
    {
      "constant": true,
      "inputs": [],
      "name": "admin",
      "outputs": [
        {
          "name": "",
          "type": "address"
        }
      ],
      "payable": false,
      "stateMutability": "view",
      "type": "function"
    },
    {
      "constant": true,
      "inputs": [],
      "name": "token",
      "outputs": [
        {
          "name": "",
          "type": "address"
        }
      ],
      "payable": false,
      "stateMutability": "view",
      "type": "function"
    },
    {
      "inputs": [
        {
          "name": "_admin",
          "type": "address"
        },
        {
          "name": "_multiSigWallet",
          "type": "address"
        },
        {
          "name": "_whiteListContract",
          "type": "address"
        },
        {
          "name": "_totalTokenSupply",
          "type": "uint256"
        },
        {
          "name": "_companyTokenSupply",
          "type": "uint256"
        },
        {
          "name": "_saleStartTime",
          "type": "uint256"
        },
        {
          "name": "_firstRoundTime",
          "type": "uint256"
        },
        {
          "name": "_saleEndTime",
          "type": "uint256"
        },
        {
          "name": "_lockedDays",
          "type": "uint256"
        }
      ],
      "payable": false,
      "stateMutability": "nonpayable",
      "type": "constructor"
    },
    {
      "payable": true,
      "stateMutability": "payable",
      "type": "fallback"
    },
    {
      "anonymous": false,
      "inputs": [
        {
          "indexed": true,
          "name": "_proxy",
          "type": "bytes32"
        },
        {
          "indexed": false,
          "name": "_recipient",
          "type": "address"
        },
        {
          "indexed": false,
          "name": "_amountInWei",
          "type": "uint256"
        }
      ],
      "name": "ProxyBuy",
      "type": "event"
    },
    {
      "anonymous": false,
      "inputs": [
        {
          "indexed": false,
          "name": "_buyer",
          "type": "address"
        },
        {
          "indexed": false,
          "name": "_tokens",
          "type": "uint256"
        },
        {
          "indexed": false,
          "name": "_payedWei",
          "type": "uint256"
        }
      ],
      "name": "Buy",
      "type": "event"
    },
    {
      "anonymous": false,
      "inputs": [],
      "name": "FinalizeSale",
      "type": "event"
    }
  ],
  "bytecode": "0x606060405260058055620000346002670de0b6b3a7640000620003e06401000000000262001601179091906401000000009004565b600b5534156200004357600080fd5b604051610120806200330f8339810160405280805190602001909190805190602001909190805190602001909190805190602001909190805190602001909190805190602001909190805190602001909190805190602001909190805190602001909190505086848484836000806101000a81548173ffffffffffffffffffffffffffffffffffffffff021916908373ffffffffffffffffffffffffffffffffffffffff160217905550826002819055508160038190555080600481905550600073ffffffffffffffffffffffffffffffffffffffff166000809054906101000a900473ffffffffffffffffffffffffffffffffffffffff1673ffffffffffffffffffffffffffffffffffffffff16141515156200016057600080fd5b6003546002541015156200017357600080fd5b6004546003541015156200018657600080fd5b5050505088600660006101000a81548173ffffffffffffffffffffffffffffffffffffffff021916908373ffffffffffffffffffffffffffffffffffffffff16021790555087600760006101000a81548173ffffffffffffffffffffffffffffffffffffffff021916908373ffffffffffffffffffffffffffffffffffffffff160217905550858483838c6200021b620003fc565b808681526020018581526020018481526020018381526020018273ffffffffffffffffffffffffffffffffffffffff1673ffffffffffffffffffffffffffffffffffffffff16815260200195505050505050604051809103906000f08015156200028457600080fd5b600860006101000a81548173ffffffffffffffffffffffffffffffffffffffff021916908373ffffffffffffffffffffffffffffffffffffffff160217905550600860009054906101000a900473ffffffffffffffffffffffffffffffffffffffff1673ffffffffffffffffffffffffffffffffffffffff1663a9059cbb600760009054906101000a900473ffffffffffffffffffffffffffffffffffffffff16876000604051602001526040518363ffffffff167c0100000000000000000000000000000000000000000000000000000000028152600401808373ffffffffffffffffffffffffffffffffffffffff1673ffffffffffffffffffffffffffffffffffffffff16815260200182815260200192505050602060405180830381600087803b1515620003b457600080fd5b6102c65a03f11515620003c657600080fd5b50505060405180519050505050505050505050506200040d565b6000808284811515620003ef57fe5b0490508091505092915050565b6040516118aa8062001a6583390190565b611648806200041d6000396000f300606060405260043610610133576000357c0100000000000000000000000000000000000000000000000000000000900463ffffffff1680630f560cd71461013f5780631cbaee2d1461019457806332b182c3146101bd5780633fa615b014610213578063442085b21461023c5780634b8feb4f1461028957806358a687ec146102de5780635c474f9e146102f35780635fbaa3901461032057806362aac84d1461034d57806371a18bfb14610372578063844323fa146103c35780638a2e467c146103ec5780639b8906ae14610415578063adfceb9a14610442578063b3bd870a14610491578063bc59d45a146104de578063c4716d0f14610507578063d2fa1f8b14610554578063ed338ff11461058f578063f088d547146105b8578063f851a440146105fa578063fc0c546a1461064f575b61013c336106a4565b50005b341561014a57600080fd5b610152610946565b604051808273ffffffffffffffffffffffffffffffffffffffff1673ffffffffffffffffffffffffffffffffffffffff16815260200191505060405180910390f35b341561019f57600080fd5b6101a761096b565b6040518082815260200191505060405180910390f35b34156101c857600080fd5b6101fd600480803573ffffffffffffffffffffffffffffffffffffffff16906020019091908035906020019091905050610971565b6040518082815260200191505060405180910390f35b341561021e57600080fd5b610226610b27565b6040518082815260200191505060405180910390f35b341561024757600080fd5b610273600480803573ffffffffffffffffffffffffffffffffffffffff16906020019091905050610b2d565b6040518082815260200191505060405180910390f35b341561029457600080fd5b61029c610c42565b604051808273ffffffffffffffffffffffffffffffffffffffff1673ffffffffffffffffffffffffffffffffffffffff16815260200191505060405180910390f35b34156102e957600080fd5b6102f1610c68565b005b34156102fe57600080fd5b610306610e99565b604051808215151515815260200191505060405180910390f35b341561032b57600080fd5b610333610ea6565b604051808215151515815260200191505060405180910390f35b341561035857600080fd5b61037060048080351515906020019091905050610eb9565b005b341561037d57600080fd5b6103a9600480803573ffffffffffffffffffffffffffffffffffffffff16906020019091905050610f32565b604051808215151515815260200191505060405180910390f35b34156103ce57600080fd5b6103d66111d1565b6040518082815260200191505060405180910390f35b34156103f757600080fd5b6103ff6111d7565b6040518082815260200191505060405180910390f35b341561042057600080fd5b6104286111dd565b604051808215151515815260200191505060405180910390f35b61047b60048080356000191690602001909190803573ffffffffffffffffffffffffffffffffffffffff169060200190919050506111e9565b6040518082815260200191505060405180910390f35b341561049c57600080fd5b6104c8600480803573ffffffffffffffffffffffffffffffffffffffff169060200190919050506112be565b6040518082815260200191505060405180910390f35b34156104e957600080fd5b6104f16112d6565b6040518082815260200191505060405180910390f35b341561051257600080fd5b61053e600480803573ffffffffffffffffffffffffffffffffffffffff169060200190919050506112dc565b6040518082815260200191505060405180910390f35b341561055f57600080fd5b610579600480803560001916906020019091905050611376565b6040518082815260200191505060405180910390f35b341561059a57600080fd5b6105a261138e565b6040518082815260200191505060405180910390f35b6105e4600480803573ffffffffffffffffffffffffffffffffffffffff169060200190919050506106a4565b6040518082815260200191505060405180910390f35b341561060557600080fd5b61060d611394565b604051808273ffffffffffffffffffffffffffffffffffffffff1673ffffffffffffffffffffffffffffffffffffffff16815260200191505060405180910390f35b341561065a57600080fd5b6106626113ba565b604051808273ffffffffffffffffffffffffffffffffffffffff1673ffffffffffffffffffffffffffffffffffffffff16815260200191505060405180910390f35b600080600080640ba43b74003a111515156106be57600080fd5b600a60009054906101000a900460ff161515156106da57600080fd5b6106e2610e99565b15156106ed57600080fd5b6106f56111dd565b15151561070157600080fd5b61070a856113e0565b9250600083141561072757600b54341015151561072657600080fd5b5b610731853461147a565b915060008211151561074257600080fd5b8134111561079d573373ffffffffffffffffffffffffffffffffffffffff166108fc610777843461153290919063ffffffff16565b9081150290604051600060405180830381858888f19350505050151561079c57600080fd5b5b6107a68261154b565b6107bb826009546115b090919063ffffffff16565b6009819055506107d6612de6836115ce90919063ffffffff16565b9050600860009054906101000a900473ffffffffffffffffffffffffffffffffffffffff1673ffffffffffffffffffffffffffffffffffffffff1663a9059cbb86836000604051602001526040518363ffffffff167c0100000000000000000000000000000000000000000000000000000000028152600401808373ffffffffffffffffffffffffffffffffffffffff1673ffffffffffffffffffffffffffffffffffffffff16815260200182815260200192505050602060405180830381600087803b15156108a557600080fd5b6102c65a03f115156108b657600080fd5b5050506040518051905015156108c857fe5b7f1cbc5ab135991bd2b6a4b034a04aa2aa086dac1371cb9b16b8b5e2ed6b036bed858284604051808473ffffffffffffffffffffffffffffffffffffffff1673ffffffffffffffffffffffffffffffffffffffff168152602001838152602001828152602001935050505060405180910390a1819350505050919050565b6000809054906101000a900473ffffffffffffffffffffffffffffffffffffffff1681565b60025481565b60008060008060025442101561098a5760009350610b1e565b6004544210151561099e5760009350610b1e565b6000809054906101000a900473ffffffffffffffffffffffffffffffffffffffff1673ffffffffffffffffffffffffffffffffffffffff1663b3aefb75876000604051602001526040518263ffffffff167c0100000000000000000000000000000000000000000000000000000000028152600401808273ffffffffffffffffffffffffffffffffffffffff1673ffffffffffffffffffffffffffffffffffffffff168152602001915050602060405180830381600087803b1515610a6257600080fd5b6102c65a03f11515610a7357600080fd5b5050506040518051905092506000831415610a915760009350610b1e565b829150600354421115610ab657610ab3600554846115ce90919063ffffffff16565b91505b610b08600160008873ffffffffffffffffffffffffffffffffffffffff1673ffffffffffffffffffffffffffffffffffffffff168152602001908152602001600020548361153290919063ffffffff16565b905084811115610b1a57849350610b1e565b8093505b50505092915050565b600b5481565b60008060008060009054906101000a900473ffffffffffffffffffffffffffffffffffffffff1673ffffffffffffffffffffffffffffffffffffffff1663b3aefb75856000604051602001526040518263ffffffff167c0100000000000000000000000000000000000000000000000000000000028152600401808273ffffffffffffffffffffffffffffffffffffffff1673ffffffffffffffffffffffffffffffffffffffff168152602001915050602060405180830381600087803b1515610bf657600080fd5b6102c65a03f11515610c0757600080fd5b505050604051805190509150819050600354421115610c3857610c35600554836115ce90919063ffffffff16565b90505b8092505050919050565b600760009054906101000a900473ffffffffffffffffffffffffffffffffffffffff1681565b610c706111dd565b1515610c7b57600080fd5b600660009054906101000a900473ffffffffffffffffffffffffffffffffffffffff1673ffffffffffffffffffffffffffffffffffffffff163373ffffffffffffffffffffffffffffffffffffffff16141515610cd757600080fd5b600860009054906101000a900473ffffffffffffffffffffffffffffffffffffffff1673ffffffffffffffffffffffffffffffffffffffff166342966c68600860009054906101000a900473ffffffffffffffffffffffffffffffffffffffff1673ffffffffffffffffffffffffffffffffffffffff166370a08231306000604051602001526040518263ffffffff167c0100000000000000000000000000000000000000000000000000000000028152600401808273ffffffffffffffffffffffffffffffffffffffff1673ffffffffffffffffffffffffffffffffffffffff168152602001915050602060405180830381600087803b1515610dda57600080fd5b6102c65a03f11515610deb57600080fd5b505050604051805190506000604051602001526040518263ffffffff167c010000000000000000000000000000000000000000000000000000000002815260040180828152602001915050602060405180830381600087803b1515610e4f57600080fd5b6102c65a03f11515610e6057600080fd5b50505060405180519050507f49943394d1d9872d58364da1ca74d2b7af3f9be1146ac3c37513b0b1cb97ae2b60405160405180910390a1565b6000600254421015905090565b600a60009054906101000a900460ff1681565b600660009054906101000a900473ffffffffffffffffffffffffffffffffffffffff1673ffffffffffffffffffffffffffffffffffffffff163373ffffffffffffffffffffffffffffffffffffffff16141515610f1557600080fd5b80600a60006101000a81548160ff02191690831515021790555050565b6000600660009054906101000a900473ffffffffffffffffffffffffffffffffffffffff1673ffffffffffffffffffffffffffffffffffffffff163373ffffffffffffffffffffffffffffffffffffffff16141515610f9057600080fd5b610f986111dd565b1515610fa357600080fd5b60003073ffffffffffffffffffffffffffffffffffffffff16311115610fe457610fe33073ffffffffffffffffffffffffffffffffffffffff163161154b565b5b600073ffffffffffffffffffffffffffffffffffffffff168273ffffffffffffffffffffffffffffffffffffffff161415156111c8578173ffffffffffffffffffffffffffffffffffffffff1663a9059cbb600760009054906101000a900473ffffffffffffffffffffffffffffffffffffffff168473ffffffffffffffffffffffffffffffffffffffff166370a08231306000604051602001526040518263ffffffff167c0100000000000000000000000000000000000000000000000000000000028152600401808273ffffffffffffffffffffffffffffffffffffffff1673ffffffffffffffffffffffffffffffffffffffff168152602001915050602060405180830381600087803b15156110fc57600080fd5b6102c65a03f1151561110d57600080fd5b505050604051805190506000604051602001526040518363ffffffff167c0100000000000000000000000000000000000000000000000000000000028152600401808373ffffffffffffffffffffffffffffffffffffffff1673ffffffffffffffffffffffffffffffffffffffff16815260200182815260200192505050602060405180830381600087803b15156111a457600080fd5b6102c65a03f115156111b557600080fd5b5050506040518051905015156111c757fe5b5b60019050919050565b60055481565b60035481565b60006004544211905090565b6000806111f5836106a4565b905061122581600c60008760001916600019168152602001908152602001600020546115b090919063ffffffff16565b600c600086600019166000191681526020019081526020016000208190555083600019167f09b5e4ada20eb4159976b564984473a225172608d4205eeafdc663a0cea8d4848483604051808373ffffffffffffffffffffffffffffffffffffffff1673ffffffffffffffffffffffffffffffffffffffff1681526020018281526020019250505060405180910390a28091505092915050565b60016020528060005260406000206000915090505481565b60095481565b600080600160008473ffffffffffffffffffffffffffffffffffffffff1673ffffffffffffffffffffffffffffffffffffffff16815260200190815260200160002054141561132e5760009050611371565b600160008373ffffffffffffffffffffffffffffffffffffffff1673ffffffffffffffffffffffffffffffffffffffff1681526020019081526020016000205490505b919050565b600c6020528060005260406000206000915090505481565b60045481565b600660009054906101000a900473ffffffffffffffffffffffffffffffffffffffff1681565b600860009054906101000a900473ffffffffffffffffffffffffffffffffffffffff1681565b600080600160008473ffffffffffffffffffffffffffffffffffffffff1673ffffffffffffffffffffffffffffffffffffffff1681526020019081526020016000205414156114325760009050611475565b600160008373ffffffffffffffffffffffffffffffffffffffff1673ffffffffffffffffffffffffffffffffffffffff1681526020019081526020016000205490505b919050565b6000806114878484610971565b90506000811115611528576114e481600160008773ffffffffffffffffffffffffffffffffffffffff1673ffffffffffffffffffffffffffffffffffffffff168152602001908152602001600020546115b090919063ffffffff16565b600160008673ffffffffffffffffffffffffffffffffffffffff1673ffffffffffffffffffffffffffffffffffffffff168152602001908152602001600020819055505b8091505092915050565b600082821115151561154057fe5b818303905092915050565b600760009054906101000a900473ffffffffffffffffffffffffffffffffffffffff1673ffffffffffffffffffffffffffffffffffffffff166108fc829081150290604051600060405180830381858888f1935050505015156115ad57600080fd5b50565b60008082840190508381101515156115c457fe5b8091505092915050565b600080828402905060008414806115ef57508284828115156115ec57fe5b04145b15156115f757fe5b8091505092915050565b600080828481151561160f57fe5b04905080915050929150505600a165627a7a7230582019384a96e261c10d53923a3f5228f9757ea89f6d4210314d85fc7f41e4b03c06002960606040526000600655341561001457600080fd5b60405160a0806118aa8339810160405280805190602001909190805190602001909190805190602001909190805190602001909190805190602001909190505033600360006101000a81548173ffffffffffffffffffffffffffffffffffffffff021916908373ffffffffffffffffffffffffffffffffffffffff16021790555084600160003373ffffffffffffffffffffffffffffffffffffffff1673ffffffffffffffffffffffffffffffffffffffff16815260200190815260200160002081905550846000819055503373ffffffffffffffffffffffffffffffffffffffff16600073ffffffffffffffffffffffffffffffffffffffff167fddf252ad1be2c89b69c2b068fc378daa952ba7f163c4a11628f55a4df523b3ef876040518082815260200191505060405180910390a383600481905550826005819055508160068190555033600760006101000a81548173ffffffffffffffffffffffffffffffffffffffff021916908373ffffffffffffffffffffffffffffffffffffffff16021790555080600860006101000a81548173ffffffffffffffffffffffffffffffffffffffff021916908373ffffffffffffffffffffffffffffffffffffffff1602179055506101f98161020364010000000002611016176401000000009004565b50505050506102da565b600360009054906101000a900473ffffffffffffffffffffffffffffffffffffffff1673ffffffffffffffffffffffffffffffffffffffff163373ffffffffffffffffffffffffffffffffffffffff1614151561025f57600080fd5b600073ffffffffffffffffffffffffffffffffffffffff168173ffffffffffffffffffffffffffffffffffffffff161415156102d75780600360006101000a81548173ffffffffffffffffffffffffffffffffffffffff021916908373ffffffffffffffffffffffffffffffffffffffff1602179055505b50565b6115c1806102e96000396000f3006060604052600436106100fc576000357c0100000000000000000000000000000000000000000000000000000000900463ffffffff16806306fdde0314610101578063095ea7b31461018f57806318160ddd146101e95780631cbaee2d1461021257806323b872dd1461023b578063313ce567146102b457806342966c68146102e35780635d5aa2771461031e57806370a08231146103735780638da5cb5b146103c057806395d89b41146104155780639c08606c146104a3578063a9059cbb146104cc578063db0e16f114610526578063dd62ed3e14610568578063ed338ff1146105d4578063f2fde38b146105fd578063fc6f946814610636575b600080fd5b341561010c57600080fd5b61011461068b565b6040518080602001828103825283818151815260200191508051906020019080838360005b83811015610154578082015181840152602081019050610139565b50505050905090810190601f1680156101815780820380516001836020036101000a031916815260200191505b509250505060405180910390f35b341561019a57600080fd5b6101cf600480803573ffffffffffffffffffffffffffffffffffffffff169060200190919080359060200190919050506106c4565b604051808215151515815260200191505060405180910390f35b34156101f457600080fd5b6101fc61084b565b6040518082815260200191505060405180910390f35b341561021d57600080fd5b610225610851565b6040518082815260200191505060405180910390f35b341561024657600080fd5b61029a600480803573ffffffffffffffffffffffffffffffffffffffff1690602001909190803573ffffffffffffffffffffffffffffffffffffffff16906020019091908035906020019091905050610857565b604051808215151515815260200191505060405180910390f35b34156102bf57600080fd5b6102c76109bd565b604051808260ff1660ff16815260200191505060405180910390f35b34156102ee57600080fd5b61030460048080359060200190919050506109c2565b604051808215151515815260200191505060405180910390f35b341561032957600080fd5b610331610c08565b604051808273ffffffffffffffffffffffffffffffffffffffff1673ffffffffffffffffffffffffffffffffffffffff16815260200191505060405180910390f35b341561037e57600080fd5b6103aa600480803573ffffffffffffffffffffffffffffffffffffffff16906020019091905050610c2e565b6040518082815260200191505060405180910390f35b34156103cb57600080fd5b6103d3610c77565b604051808273ffffffffffffffffffffffffffffffffffffffff1673ffffffffffffffffffffffffffffffffffffffff16815260200191505060405180910390f35b341561042057600080fd5b610428610c9d565b6040518080602001828103825283818151815260200191508051906020019080838360005b8381101561046857808201518184015260208101905061044d565b50505050905090810190601f1680156104955780820380516001836020036101000a031916815260200191505b509250505060405180910390f35b34156104ae57600080fd5b6104b6610cd6565b6040518082815260200191505060405180910390f35b34156104d757600080fd5b61050c600480803573ffffffffffffffffffffffffffffffffffffffff16906020019091908035906020019091905050610cdc565b604051808215151515815260200191505060405180910390f35b341561053157600080fd5b610566600480803573ffffffffffffffffffffffffffffffffffffffff16906020019091908035906020019091905050610e40565b005b341561057357600080fd5b6105be600480803573ffffffffffffffffffffffffffffffffffffffff1690602001909190803573ffffffffffffffffffffffffffffffffffffffff16906020019091905050610f89565b6040518082815260200191505060405180910390f35b34156105df57600080fd5b6105e7611010565b6040518082815260200191505060405180910390f35b341561060857600080fd5b610634600480803573ffffffffffffffffffffffffffffffffffffffff16906020019091905050611016565b005b341561064157600080fd5b6106496110ed565b604051808273ffffffffffffffffffffffffffffffffffffffff1673ffffffffffffffffffffffffffffffffffffffff16815260200191505060405180910390f35b6040805190810160405280600c81526020017f446f74616c6b20546f6b656e000000000000000000000000000000000000000081525081565b60008082148061075057506000600260003373ffffffffffffffffffffffffffffffffffffffff1673ffffffffffffffffffffffffffffffffffffffff16815260200190815260200160002060008573ffffffffffffffffffffffffffffffffffffffff1673ffffffffffffffffffffffffffffffffffffffff16815260200190815260200160002054145b151561075b57600080fd5b81600260003373ffffffffffffffffffffffffffffffffffffffff1673ffffffffffffffffffffffffffffffffffffffff16815260200190815260200160002060008573ffffffffffffffffffffffffffffffffffffffff1673ffffffffffffffffffffffffffffffffffffffff168152602001908152602001600020819055508273ffffffffffffffffffffffffffffffffffffffff163373ffffffffffffffffffffffffffffffffffffffff167f8c5be1e5ebec7d5bd14f71427d1e84f3dd0314c0f7b2291e5b200ac8c7c3b925846040518082815260200191505060405180910390a36001905092915050565b60005481565b60045481565b6000620151806006540260055401421115801561087657506004544210155b1561093057600760009054906101000a900473ffffffffffffffffffffffffffffffffffffffff1673ffffffffffffffffffffffffffffffffffffffff163373ffffffffffffffffffffffffffffffffffffffff1614806109245750600860009054906101000a900473ffffffffffffffffffffffffffffffffffffffff1673ffffffffffffffffffffffffffffffffffffffff163373ffffffffffffffffffffffffffffffffffffffff16145b151561092f57600080fd5b5b82600073ffffffffffffffffffffffffffffffffffffffff168173ffffffffffffffffffffffffffffffffffffffff161415151561096d57600080fd5b3073ffffffffffffffffffffffffffffffffffffffff168173ffffffffffffffffffffffffffffffffffffffff16141515156109a857600080fd5b6109b3858585611113565b9150509392505050565b601281565b600062015180600654026005540142111580156109e157506004544210155b15610a9b57600760009054906101000a900473ffffffffffffffffffffffffffffffffffffffff1673ffffffffffffffffffffffffffffffffffffffff163373ffffffffffffffffffffffffffffffffffffffff161480610a8f5750600860009054906101000a900473ffffffffffffffffffffffffffffffffffffffff1673ffffffffffffffffffffffffffffffffffffffff163373ffffffffffffffffffffffffffffffffffffffff16145b1515610a9a57600080fd5b5b610aed82600160003373ffffffffffffffffffffffffffffffffffffffff1673ffffffffffffffffffffffffffffffffffffffff168152602001908152602001600020546113c390919063ffffffff16565b600160003373ffffffffffffffffffffffffffffffffffffffff1673ffffffffffffffffffffffffffffffffffffffff16815260200190815260200160002081905550610b45826000546113c390919063ffffffff16565b6000819055503373ffffffffffffffffffffffffffffffffffffffff167fcc16f5dbb4873280815c1ee09dbd06736cffcc184412cf7a71a0fdb75d397ca5836040518082815260200191505060405180910390a2600073ffffffffffffffffffffffffffffffffffffffff163373ffffffffffffffffffffffffffffffffffffffff167fddf252ad1be2c89b69c2b068fc378daa952ba7f163c4a11628f55a4df523b3ef846040518082815260200191505060405180910390a360019050919050565b600760009054906101000a900473ffffffffffffffffffffffffffffffffffffffff1681565b6000600160008373ffffffffffffffffffffffffffffffffffffffff1673ffffffffffffffffffffffffffffffffffffffff168152602001908152602001600020549050919050565b600360009054906101000a900473ffffffffffffffffffffffffffffffffffffffff1681565b6040805190810160405280600681526020017f446f74616c6b000000000000000000000000000000000000000000000000000081525081565b60065481565b60006201518060065402600554014211158015610cfb57506004544210155b15610db557600760009054906101000a900473ffffffffffffffffffffffffffffffffffffffff1673ffffffffffffffffffffffffffffffffffffffff163373ffffffffffffffffffffffffffffffffffffffff161480610da95750600860009054906101000a900473ffffffffffffffffffffffffffffffffffffffff1673ffffffffffffffffffffffffffffffffffffffff163373ffffffffffffffffffffffffffffffffffffffff16145b1515610db457600080fd5b5b82600073ffffffffffffffffffffffffffffffffffffffff168173ffffffffffffffffffffffffffffffffffffffff1614151515610df257600080fd5b3073ffffffffffffffffffffffffffffffffffffffff168173ffffffffffffffffffffffffffffffffffffffff1614151515610e2d57600080fd5b610e3784846113dc565b91505092915050565b600360009054906101000a900473ffffffffffffffffffffffffffffffffffffffff1673ffffffffffffffffffffffffffffffffffffffff163373ffffffffffffffffffffffffffffffffffffffff16141515610e9c57600080fd5b8173ffffffffffffffffffffffffffffffffffffffff1663a9059cbb600360009054906101000a900473ffffffffffffffffffffffffffffffffffffffff16836000604051602001526040518363ffffffff167c0100000000000000000000000000000000000000000000000000000000028152600401808373ffffffffffffffffffffffffffffffffffffffff1673ffffffffffffffffffffffffffffffffffffffff16815260200182815260200192505050602060405180830381600087803b1515610f6957600080fd5b6102c65a03f11515610f7a57600080fd5b50505060405180519050505050565b6000600260008473ffffffffffffffffffffffffffffffffffffffff1673ffffffffffffffffffffffffffffffffffffffff16815260200190815260200160002060008373ffffffffffffffffffffffffffffffffffffffff1673ffffffffffffffffffffffffffffffffffffffff16815260200190815260200160002054905092915050565b60055481565b600360009054906101000a900473ffffffffffffffffffffffffffffffffffffffff1673ffffffffffffffffffffffffffffffffffffffff163373ffffffffffffffffffffffffffffffffffffffff1614151561107257600080fd5b600073ffffffffffffffffffffffffffffffffffffffff168173ffffffffffffffffffffffffffffffffffffffff161415156110ea5780600360006101000a81548173ffffffffffffffffffffffffffffffffffffffff021916908373ffffffffffffffffffffffffffffffffffffffff1602179055505b50565b600860009054906101000a900473ffffffffffffffffffffffffffffffffffffffff1681565b600080600260008673ffffffffffffffffffffffffffffffffffffffff1673ffffffffffffffffffffffffffffffffffffffff16815260200190815260200160002060003373ffffffffffffffffffffffffffffffffffffffff1673ffffffffffffffffffffffffffffffffffffffff1681526020019081526020016000205490506111e783600160008873ffffffffffffffffffffffffffffffffffffffff1673ffffffffffffffffffffffffffffffffffffffff168152602001908152602001600020546113c390919063ffffffff16565b600160008773ffffffffffffffffffffffffffffffffffffffff1673ffffffffffffffffffffffffffffffffffffffff1681526020019081526020016000208190555061127c83600160008773ffffffffffffffffffffffffffffffffffffffff1673ffffffffffffffffffffffffffffffffffffffff1681526020019081526020016000205461157790919063ffffffff16565b600160008673ffffffffffffffffffffffffffffffffffffffff1673ffffffffffffffffffffffffffffffffffffffff168152602001908152602001600020819055506112d283826113c390919063ffffffff16565b600260008773ffffffffffffffffffffffffffffffffffffffff1673ffffffffffffffffffffffffffffffffffffffff16815260200190815260200160002060003373ffffffffffffffffffffffffffffffffffffffff1673ffffffffffffffffffffffffffffffffffffffff168152602001908152602001600020819055508373ffffffffffffffffffffffffffffffffffffffff168573ffffffffffffffffffffffffffffffffffffffff167fddf252ad1be2c89b69c2b068fc378daa952ba7f163c4a11628f55a4df523b3ef856040518082815260200191505060405180910390a360019150509392505050565b60008282111515156113d157fe5b818303905092915050565b600061143082600160003373ffffffffffffffffffffffffffffffffffffffff1673ffffffffffffffffffffffffffffffffffffffff168152602001908152602001600020546113c390919063ffffffff16565b600160003373ffffffffffffffffffffffffffffffffffffffff1673ffffffffffffffffffffffffffffffffffffffff168152602001908152602001600020819055506114c582600160008673ffffffffffffffffffffffffffffffffffffffff1673ffffffffffffffffffffffffffffffffffffffff1681526020019081526020016000205461157790919063ffffffff16565b600160008573ffffffffffffffffffffffffffffffffffffffff1673ffffffffffffffffffffffffffffffffffffffff168152602001908152602001600020819055508273ffffffffffffffffffffffffffffffffffffffff163373ffffffffffffffffffffffffffffffffffffffff167fddf252ad1be2c89b69c2b068fc378daa952ba7f163c4a11628f55a4df523b3ef846040518082815260200191505060405180910390a36001905092915050565b600080828401905083811015151561158b57fe5b80915050929150505600a165627a7a72305820995ac984bf6e9fec21a842d980121c844eec01c993eb7aa57170c7586932d5660029",
  "source": "pragma solidity ^0.4.0;\n\nimport './DotalkTokenSmartContract.sol';\nimport './DotalkApprover.sol';\nimport './DotalkWhitelist.sol';\n\ncontract DotalkSaleSmartContract is DotalkApprover{\n    address             public admin;\n    address             public multiSigWallet; // can be a single wallet\n    DotalkTokenSmartContract public token;\n    uint                public raisedWei;\n    bool                public haltSale;\n    uint                constant toWei = (10**18);\n    uint                public minCap = toWei.div(2);\n\n    mapping(bytes32=>uint) public proxyPurchases;\n\n    function DotalkSaleSmartContract( address _admin,\n    address _multiSigWallet,\n    DotalkWhitelist _whiteListContract,\n    uint _totalTokenSupply,\n    uint _companyTokenSupply,\n    uint _saleStartTime,\n    uint _firstRoundTime,\n    uint _saleEndTime,\n    uint _lockedDays)\n\n    public\n\n    DotalkApprover( _whiteListContract,\n    _saleStartTime,\n    _firstRoundTime,\n    _saleEndTime )\n    {\n        admin = _admin;\n        multiSigWallet = _multiSigWallet;\n\n        token = new DotalkTokenSmartContract( _totalTokenSupply,\n        _saleStartTime,\n        _saleEndTime,\n        _lockedDays, ///change depending on each project\n        _admin );\n\n        // transfer preminted tokens to company wallet\n        token.transfer( multiSigWallet, _companyTokenSupply );\n    }\n\n    function setHaltSale( bool halt ) public {\n        require( msg.sender == admin );\n        haltSale = halt;\n    }\n\n    function() public payable {\n        buy( msg.sender );\n    }\n\n    event ProxyBuy( bytes32 indexed _proxy, address _recipient, uint _amountInWei );\n    function proxyBuy( bytes32 proxy, address recipient ) public payable returns(uint){\n        uint amount = buy( recipient );\n        proxyPurchases[proxy] = proxyPurchases[proxy].add(amount);\n        ProxyBuy( proxy, recipient, amount );\n\n\n        return amount;\n    }\n\n    event Buy( address _buyer, uint _tokens, uint _payedWei );\n    function buy( address recipient ) public payable returns(uint){\n        require( tx.gasprice <= 50000000000 wei );\n\n        require( ! haltSale );\n        require( saleStarted() );\n        require( ! saleEnded() );\n\n        // check min buy at least 0.5 ETH;\n        uint weiContributedCap = contributedInternalCap(recipient);\n\n        if (weiContributedCap == 0 ) require( msg.value >= minCap);\n\n\n\n        uint weiPayment = eligibleTestAndIncrement( recipient, msg.value );\n\n        require( weiPayment > 0 );\n\n\n        // send to msg.sender, not to recipient\n        if( msg.value > weiPayment ) {\n            msg.sender.transfer( msg.value.sub( weiPayment ) );\n        }\n\n        // send payment to wallet\n        sendETHToMultiSig( weiPayment );\n        raisedWei = raisedWei.add( weiPayment );\n        uint recievedTokens = weiPayment.mul( 11750 );\n\n        assert( token.transfer( recipient, recievedTokens ) );\n\n\n        Buy( recipient, recievedTokens, weiPayment );\n\n        return weiPayment;\n    }\n\n    function sendETHToMultiSig( uint value ) internal {\n        multiSigWallet.transfer( value );\n    }\n\n    event FinalizeSale();\n    // function is callable by everyone\n    function finalizeSale() public {\n        require( saleEnded() );\n        require( msg.sender == admin );\n\n        // burn remaining tokens\n        token.burn(token.balanceOf(this));\n\n        FinalizeSale();\n    }\n\n    // ETH balance is always expected to be 0.\n    // but in case something went wrong, we use this function to extract the eth.\n    function emergencyDrain(ERC20 anyToken) public returns(bool){\n        require( msg.sender == admin );\n        require( saleEnded() );\n\n        if( this.balance > 0 ) {\n            sendETHToMultiSig( this.balance );\n        }\n\n        if( anyToken != address(0x0) ) {\n            assert( anyToken.transfer(multiSigWallet, anyToken.balanceOf(this)) );\n        }\n\n        return true;\n    }\n\n    // just to check that funds goes to the right place\n    // tokens are not given in return\n    /*function debugBuy() public payable {\n        require( msg.value == 123 );\n        sendETHToMultiSig( msg.value );\n    }*/\n}",
  "sourcePath": "/Users/tuongbui/Storage/blockchain/dotalk/contracts/DotalkSaleSmartContract.sol",
  "compiler": {
    "name": "solc",
    "version": "0.4.18+commit.9cf6e910.Emscripten.clang"
  },
  "schemaVersion": "1.0.1",
  "updatedAt": "2018-05-30T08:25:09.808Z"
}